{
  "_format": "hh-sol-artifact-1",
  "contractName": "Certificate",
  "sourceName": "contracts/Certificate.sol",
  "abi": [
    {
      "inputs": [
        {
          "internalType": "string",
          "name": "name",
          "type": "string"
        },
        {
          "internalType": "string",
          "name": "father_name",
          "type": "string"
        },
        {
          "internalType": "string",
          "name": "mother_name",
          "type": "string"
        },
        {
          "internalType": "string",
          "name": "dob",
          "type": "string"
        },
        {
          "internalType": "string",
          "name": "birth_location",
          "type": "string"
        },
        {
          "internalType": "address",
          "name": "_issuedTo",
          "type": "address"
        }
      ],
      "name": "addChildDetails",
      "outputs": [],
      "stateMutability": "nonpayable",
      "type": "function"
    },
    {
      "inputs": [
        {
          "internalType": "string",
          "name": "_student_name",
          "type": "string"
        },
        {
          "internalType": "string",
          "name": "_course_name",
          "type": "string"
        },
        {
          "internalType": "string",
          "name": "_institute_name",
          "type": "string"
        },
        {
          "internalType": "uint256",
          "name": "_course_duration",
          "type": "uint256"
        },
        {
          "internalType": "string",
          "name": "_graduation_date",
          "type": "string"
        },
        {
          "internalType": "address",
          "name": "_issuedTo",
          "type": "address"
        }
      ],
      "name": "addGraduationDetails",
      "outputs": [],
      "stateMutability": "nonpayable",
      "type": "function"
    },
    {
      "inputs": [
        {
          "internalType": "address",
          "name": "_issuedTo",
          "type": "address"
        }
      ],
      "name": "getAllChildDetails",
      "outputs": [
        {
          "components": [
            {
              "internalType": "string",
              "name": "child_name",
              "type": "string"
            },
            {
              "internalType": "string",
              "name": "child_father_name",
              "type": "string"
            },
            {
              "internalType": "string",
              "name": "child_mother_name",
              "type": "string"
            },
            {
              "internalType": "string",
              "name": "birth_date",
              "type": "string"
            },
            {
              "internalType": "string",
              "name": "birth_location",
              "type": "string"
            },
            {
              "internalType": "address",
              "name": "issuedFrom",
              "type": "address"
            },
            {
              "internalType": "address",
              "name": "issuedTo",
              "type": "address"
            }
          ],
          "internalType": "struct Certificate.ChildDetails",
          "name": "",
          "type": "tuple"
        }
      ],
      "stateMutability": "view",
      "type": "function"
    },
    {
      "inputs": [
        {
          "internalType": "address",
          "name": "_issuedTo",
          "type": "address"
        }
      ],
      "name": "getGraduationDetails",
      "outputs": [
        {
          "components": [
            {
              "internalType": "string",
              "name": "student_name",
              "type": "string"
            },
            {
              "internalType": "string",
              "name": "course_name",
              "type": "string"
            },
            {
              "internalType": "string",
              "name": "institute_name",
              "type": "string"
            },
            {
              "internalType": "uint256",
              "name": "course_duration",
              "type": "uint256"
            },
            {
              "internalType": "string",
              "name": "graduation_date",
              "type": "string"
            },
            {
              "internalType": "address",
              "name": "issuedFrom",
              "type": "address"
            },
            {
              "internalType": "address",
              "name": "issuedTo",
              "type": "address"
            }
          ],
          "internalType": "struct Certificate.GraduationDetails",
          "name": "",
          "type": "tuple"
        }
      ],
      "stateMutability": "view",
      "type": "function"
    }
  ],
  "bytecode": "0x608060405234801561001057600080fd5b5061141d806100206000396000f3fe608060405234801561001057600080fd5b506004361061004c5760003560e01c806306e71c8a146100515780632e3c589e1461006d57806357fe55a414610089578063d588cb24146100b9575b600080fd5b61006b60048036038101906100669190610e2f565b6100e9565b005b61008760048036038101906100829190610f30565b610314565b005b6100a3600480360381019061009e9190610e06565b6104c9565b6040516100b091906111d9565b60405180910390f35b6100d360048036038101906100ce9190610e06565b6108a8565b6040516100e091906111fb565b60405180910390f35b6040518060e001604052808781526020018681526020018581526020018481526020018381526020013373ffffffffffffffffffffffffffffffffffffffff1681526020018273ffffffffffffffffffffffffffffffffffffffff16815250600160008373ffffffffffffffffffffffffffffffffffffffff1673ffffffffffffffffffffffffffffffffffffffff16815260200190815260200160002060008201518160000190805190602001906101a3929190610bff565b5060208201518160010190805190602001906101c0929190610bff565b5060408201518160020190805190602001906101dd929190610bff565b5060608201518160030190805190602001906101fa929190610bff565b506080820151816004019080519060200190610217929190610bff565b5060a08201518160050160006101000a81548173ffffffffffffffffffffffffffffffffffffffff021916908373ffffffffffffffffffffffffffffffffffffffff16021790555060c08201518160060160006101000a81548173ffffffffffffffffffffffffffffffffffffffff021916908373ffffffffffffffffffffffffffffffffffffffff1602179055509050506000819080600181540180825580915050600190039060005260206000200160009091909190916101000a81548173ffffffffffffffffffffffffffffffffffffffff021916908373ffffffffffffffffffffffffffffffffffffffff160217905550505050505050565b6040518060e001604052808781526020018681526020018581526020018481526020018381526020013373ffffffffffffffffffffffffffffffffffffffff1681526020018273ffffffffffffffffffffffffffffffffffffffff16815250600260008373ffffffffffffffffffffffffffffffffffffffff1673ffffffffffffffffffffffffffffffffffffffff16815260200190815260200160002060008201518160000190805190602001906103ce929190610bff565b5060208201518160010190805190602001906103eb929190610bff565b506040820151816002019080519060200190610408929190610bff565b5060608201518160030155608082015181600401908051906020019061042f929190610bff565b5060a08201518160050160006101000a81548173ffffffffffffffffffffffffffffffffffffffff021916908373ffffffffffffffffffffffffffffffffffffffff16021790555060c08201518160060160006101000a81548173ffffffffffffffffffffffffffffffffffffffff021916908373ffffffffffffffffffffffffffffffffffffffff160217905550905050505050505050565b6104d1610c85565b600160008373ffffffffffffffffffffffffffffffffffffffff1673ffffffffffffffffffffffffffffffffffffffff1681526020019081526020016000206040518060e001604052908160008201805461052b90611318565b80601f016020809104026020016040519081016040528092919081815260200182805461055790611318565b80156105a45780601f10610579576101008083540402835291602001916105a4565b820191906000526020600020905b81548152906001019060200180831161058757829003601f168201915b505050505081526020016001820180546105bd90611318565b80601f01602080910402602001604051908101604052809291908181526020018280546105e990611318565b80156106365780601f1061060b57610100808354040283529160200191610636565b820191906000526020600020905b81548152906001019060200180831161061957829003601f168201915b5050505050815260200160028201805461064f90611318565b80601f016020809104026020016040519081016040528092919081815260200182805461067b90611318565b80156106c85780601f1061069d576101008083540402835291602001916106c8565b820191906000526020600020905b8154815290600101906020018083116106ab57829003601f168201915b505050505081526020016003820180546106e190611318565b80601f016020809104026020016040519081016040528092919081815260200182805461070d90611318565b801561075a5780601f1061072f5761010080835404028352916020019161075a565b820191906000526020600020905b81548152906001019060200180831161073d57829003601f168201915b5050505050815260200160048201805461077390611318565b80601f016020809104026020016040519081016040528092919081815260200182805461079f90611318565b80156107ec5780601f106107c1576101008083540402835291602001916107ec565b820191906000526020600020905b8154815290600101906020018083116107cf57829003601f168201915b505050505081526020016005820160009054906101000a900473ffffffffffffffffffffffffffffffffffffffff1673ffffffffffffffffffffffffffffffffffffffff1673ffffffffffffffffffffffffffffffffffffffff1681526020016006820160009054906101000a900473ffffffffffffffffffffffffffffffffffffffff1673ffffffffffffffffffffffffffffffffffffffff1673ffffffffffffffffffffffffffffffffffffffff16815250509050919050565b6108b0610cee565b600260008373ffffffffffffffffffffffffffffffffffffffff1673ffffffffffffffffffffffffffffffffffffffff1681526020019081526020016000206040518060e001604052908160008201805461090a90611318565b80601f016020809104026020016040519081016040528092919081815260200182805461093690611318565b80156109835780601f1061095857610100808354040283529160200191610983565b820191906000526020600020905b81548152906001019060200180831161096657829003601f168201915b5050505050815260200160018201805461099c90611318565b80601f01602080910402602001604051908101604052809291908181526020018280546109c890611318565b8015610a155780601f106109ea57610100808354040283529160200191610a15565b820191906000526020600020905b8154815290600101906020018083116109f857829003601f168201915b50505050508152602001600282018054610a2e90611318565b80601f0160208091040260200160405190810160405280929190818152602001828054610a5a90611318565b8015610aa75780601f10610a7c57610100808354040283529160200191610aa7565b820191906000526020600020905b815481529060010190602001808311610a8a57829003601f168201915b5050505050815260200160038201548152602001600482018054610aca90611318565b80601f0160208091040260200160405190810160405280929190818152602001828054610af690611318565b8015610b435780601f10610b1857610100808354040283529160200191610b43565b820191906000526020600020905b815481529060010190602001808311610b2657829003601f168201915b505050505081526020016005820160009054906101000a900473ffffffffffffffffffffffffffffffffffffffff1673ffffffffffffffffffffffffffffffffffffffff1673ffffffffffffffffffffffffffffffffffffffff1681526020016006820160009054906101000a900473ffffffffffffffffffffffffffffffffffffffff1673ffffffffffffffffffffffffffffffffffffffff1673ffffffffffffffffffffffffffffffffffffffff16815250509050919050565b828054610c0b90611318565b90600052602060002090601f016020900481019282610c2d5760008555610c74565b82601f10610c4657805160ff1916838001178555610c74565b82800160010185558215610c74579182015b82811115610c73578251825591602001919060010190610c58565b5b509050610c819190610d57565b5090565b6040518060e001604052806060815260200160608152602001606081526020016060815260200160608152602001600073ffffffffffffffffffffffffffffffffffffffff168152602001600073ffffffffffffffffffffffffffffffffffffffff1681525090565b6040518060e001604052806060815260200160608152602001606081526020016000815260200160608152602001600073ffffffffffffffffffffffffffffffffffffffff168152602001600073ffffffffffffffffffffffffffffffffffffffff1681525090565b5b80821115610d70576000816000905550600101610d58565b5090565b6000610d87610d828461124e565b61121d565b905082815260208101848484011115610d9f57600080fd5b610daa8482856112d6565b509392505050565b600081359050610dc1816113b9565b92915050565b600082601f830112610dd857600080fd5b8135610de8848260208601610d74565b91505092915050565b600081359050610e00816113d0565b92915050565b600060208284031215610e1857600080fd5b6000610e2684828501610db2565b91505092915050565b60008060008060008060c08789031215610e4857600080fd5b600087013567ffffffffffffffff811115610e6257600080fd5b610e6e89828a01610dc7565b965050602087013567ffffffffffffffff811115610e8b57600080fd5b610e9789828a01610dc7565b955050604087013567ffffffffffffffff811115610eb457600080fd5b610ec089828a01610dc7565b945050606087013567ffffffffffffffff811115610edd57600080fd5b610ee989828a01610dc7565b935050608087013567ffffffffffffffff811115610f0657600080fd5b610f1289828a01610dc7565b92505060a0610f2389828a01610db2565b9150509295509295509295565b60008060008060008060c08789031215610f4957600080fd5b600087013567ffffffffffffffff811115610f6357600080fd5b610f6f89828a01610dc7565b965050602087013567ffffffffffffffff811115610f8c57600080fd5b610f9889828a01610dc7565b955050604087013567ffffffffffffffff811115610fb557600080fd5b610fc189828a01610dc7565b9450506060610fd289828a01610df1565b935050608087013567ffffffffffffffff811115610fef57600080fd5b610ffb89828a01610dc7565b92505060a061100c89828a01610db2565b9150509295509295509295565b6110228161129a565b82525050565b60006110338261127e565b61103d8185611289565b935061104d8185602086016112e5565b611056816113a8565b840191505092915050565b600060e083016000830151848203600086015261107e8282611028565b915050602083015184820360208601526110988282611028565b915050604083015184820360408601526110b28282611028565b915050606083015184820360608601526110cc8282611028565b915050608083015184820360808601526110e68282611028565b91505060a08301516110fb60a0860182611019565b5060c083015161110e60c0860182611019565b508091505092915050565b600060e08301600083015184820360008601526111368282611028565b915050602083015184820360208601526111508282611028565b9150506040830151848203604086015261116a8282611028565b915050606083015161117f60608601826111ca565b50608083015184820360808601526111978282611028565b91505060a08301516111ac60a0860182611019565b5060c08301516111bf60c0860182611019565b508091505092915050565b6111d3816112cc565b82525050565b600060208201905081810360008301526111f38184611061565b905092915050565b600060208201905081810360008301526112158184611119565b905092915050565b6000604051905081810181811067ffffffffffffffff8211171561124457611243611379565b5b8060405250919050565b600067ffffffffffffffff82111561126957611268611379565b5b601f19601f8301169050602081019050919050565b600081519050919050565b600082825260208201905092915050565b60006112a5826112ac565b9050919050565b600073ffffffffffffffffffffffffffffffffffffffff82169050919050565b6000819050919050565b82818337600083830152505050565b60005b838110156113035780820151818401526020810190506112e8565b83811115611312576000848401525b50505050565b6000600282049050600182168061133057607f821691505b602082108114156113445761134361134a565b5b50919050565b7f4e487b7100000000000000000000000000000000000000000000000000000000600052602260045260246000fd5b7f4e487b7100000000000000000000000000000000000000000000000000000000600052604160045260246000fd5b6000601f19601f8301169050919050565b6113c28161129a565b81146113cd57600080fd5b50565b6113d9816112cc565b81146113e457600080fd5b5056fea2646970667358221220d14ef538d274af66f7f81572d9d4d0db18d43fc6b21b28bb5e96f444d1bb971b64736f6c63430008000033",
  "linkReferences": {},
  "deployedLinkReferences": {}
}