{
  "_format": "hh-sol-artifact-1",
  "contractName": "Certificate",
  "sourceName": "contracts/Certificate.sol",
  "abi": [
    {
      "inputs": [
        {
          "internalType": "string",
          "name": "name",
          "type": "string"
        },
        {
          "internalType": "string",
          "name": "father_name",
          "type": "string"
        },
        {
          "internalType": "string",
          "name": "mother_name",
          "type": "string"
        },
        {
          "internalType": "string",
          "name": "dob",
          "type": "string"
        },
        {
          "internalType": "string",
          "name": "birth_location",
          "type": "string"
        },
        {
          "internalType": "address",
          "name": "_issuedTo",
          "type": "address"
        }
      ],
      "name": "addChildDetails",
      "outputs": [],
      "stateMutability": "nonpayable",
      "type": "function"
    },
    {
      "inputs": [
        {
          "internalType": "string",
          "name": "_student_name",
          "type": "string"
        },
        {
          "internalType": "string",
          "name": "_course_name",
          "type": "string"
        },
        {
          "internalType": "string",
          "name": "_institute_name",
          "type": "string"
        },
        {
          "internalType": "uint256",
          "name": "_course_duration",
          "type": "uint256"
        },
        {
          "internalType": "string",
          "name": "_graduation_date",
          "type": "string"
        },
        {
          "internalType": "address",
          "name": "_issuedTo",
          "type": "address"
        }
      ],
      "name": "addGraduationDetails",
      "outputs": [],
      "stateMutability": "nonpayable",
      "type": "function"
    },
    {
      "inputs": [
        {
          "internalType": "address",
          "name": "_issuedTo",
          "type": "address"
        }
      ],
      "name": "getAllChildDetails",
      "outputs": [
        {
          "components": [
            {
              "internalType": "string",
              "name": "child_name",
              "type": "string"
            },
            {
              "internalType": "string",
              "name": "child_father_name",
              "type": "string"
            },
            {
              "internalType": "string",
              "name": "child_mother_name",
              "type": "string"
            },
            {
              "internalType": "string",
              "name": "birth_date",
              "type": "string"
            },
            {
              "internalType": "string",
              "name": "birth_location",
              "type": "string"
            },
            {
              "internalType": "address",
              "name": "issuedFrom",
              "type": "address"
            },
            {
              "internalType": "address",
              "name": "issuedTo",
              "type": "address"
            }
          ],
          "internalType": "struct Certificate.ChildDetails",
          "name": "",
          "type": "tuple"
        }
      ],
      "stateMutability": "view",
      "type": "function"
    },
    {
      "inputs": [
        {
          "internalType": "address",
          "name": "_issuedTo",
          "type": "address"
        }
      ],
      "name": "getGraduationDetails",
      "outputs": [
        {
          "components": [
            {
              "internalType": "string",
              "name": "student_name",
              "type": "string"
            },
            {
              "internalType": "string",
              "name": "course_name",
              "type": "string"
            },
            {
              "internalType": "string",
              "name": "institute_name",
              "type": "string"
            },
            {
              "internalType": "uint256",
              "name": "course_duration",
              "type": "uint256"
            },
            {
              "internalType": "string",
              "name": "graduation_date",
              "type": "string"
            },
            {
              "internalType": "address",
              "name": "issuedFrom",
              "type": "address"
            },
            {
              "internalType": "address",
              "name": "issuedTo",
              "type": "address"
            }
          ],
          "internalType": "struct Certificate.GraduationDetails",
          "name": "",
          "type": "tuple"
        }
      ],
      "stateMutability": "view",
      "type": "function"
    }
  ],
  "bytecode": "0x608060405234801561001057600080fd5b50611623806100206000396000f3fe608060405234801561001057600080fd5b506004361061004c5760003560e01c806306e71c8a146100515780632e3c589e1461006d57806357fe55a414610089578063d588cb24146100b9575b600080fd5b61006b60048036038101906100669190610f26565b6100e9565b005b61008760048036038101906100829190611027565b61040b565b005b6100a3600480360381019061009e9190610efd565b6105c0565b6040516100b09190611356565b60405180910390f35b6100d360048036038101906100ce9190610efd565b61099f565b6040516100e09190611378565b60405180910390f35b60005b6000805490508110156101df578173ffffffffffffffffffffffffffffffffffffffff166000828154811061014a577f4e487b7100000000000000000000000000000000000000000000000000000000600052603260045260246000fd5b9060005260206000200160009054906101000a900473ffffffffffffffffffffffffffffffffffffffff1673ffffffffffffffffffffffffffffffffffffffff1614156101cc576040517f08c379a00000000000000000000000000000000000000000000000000000000081526004016101c390611336565b60405180910390fd5b80806101d7906114d8565b9150506100ec565b506040518060e001604052808781526020018681526020018581526020018481526020018381526020013373ffffffffffffffffffffffffffffffffffffffff1681526020018273ffffffffffffffffffffffffffffffffffffffff16815250600160008373ffffffffffffffffffffffffffffffffffffffff1673ffffffffffffffffffffffffffffffffffffffff168152602001908152602001600020600082015181600001908051906020019061029a929190610cf6565b5060208201518160010190805190602001906102b7929190610cf6565b5060408201518160020190805190602001906102d4929190610cf6565b5060608201518160030190805190602001906102f1929190610cf6565b50608082015181600401908051906020019061030e929190610cf6565b5060a08201518160050160006101000a81548173ffffffffffffffffffffffffffffffffffffffff021916908373ffffffffffffffffffffffffffffffffffffffff16021790555060c08201518160060160006101000a81548173ffffffffffffffffffffffffffffffffffffffff021916908373ffffffffffffffffffffffffffffffffffffffff1602179055509050506000819080600181540180825580915050600190039060005260206000200160009091909190916101000a81548173ffffffffffffffffffffffffffffffffffffffff021916908373ffffffffffffffffffffffffffffffffffffffff160217905550505050505050565b6040518060e001604052808781526020018681526020018581526020018481526020018381526020013373ffffffffffffffffffffffffffffffffffffffff1681526020018273ffffffffffffffffffffffffffffffffffffffff16815250600260008373ffffffffffffffffffffffffffffffffffffffff1673ffffffffffffffffffffffffffffffffffffffff16815260200190815260200160002060008201518160000190805190602001906104c5929190610cf6565b5060208201518160010190805190602001906104e2929190610cf6565b5060408201518160020190805190602001906104ff929190610cf6565b50606082015181600301556080820151816004019080519060200190610526929190610cf6565b5060a08201518160050160006101000a81548173ffffffffffffffffffffffffffffffffffffffff021916908373ffffffffffffffffffffffffffffffffffffffff16021790555060c08201518160060160006101000a81548173ffffffffffffffffffffffffffffffffffffffff021916908373ffffffffffffffffffffffffffffffffffffffff160217905550905050505050505050565b6105c8610d7c565b600160008373ffffffffffffffffffffffffffffffffffffffff1673ffffffffffffffffffffffffffffffffffffffff1681526020019081526020016000206040518060e0016040529081600082018054610622906114a6565b80601f016020809104026020016040519081016040528092919081815260200182805461064e906114a6565b801561069b5780601f106106705761010080835404028352916020019161069b565b820191906000526020600020905b81548152906001019060200180831161067e57829003601f168201915b505050505081526020016001820180546106b4906114a6565b80601f01602080910402602001604051908101604052809291908181526020018280546106e0906114a6565b801561072d5780601f106107025761010080835404028352916020019161072d565b820191906000526020600020905b81548152906001019060200180831161071057829003601f168201915b50505050508152602001600282018054610746906114a6565b80601f0160208091040260200160405190810160405280929190818152602001828054610772906114a6565b80156107bf5780601f10610794576101008083540402835291602001916107bf565b820191906000526020600020905b8154815290600101906020018083116107a257829003601f168201915b505050505081526020016003820180546107d8906114a6565b80601f0160208091040260200160405190810160405280929190818152602001828054610804906114a6565b80156108515780601f1061082657610100808354040283529160200191610851565b820191906000526020600020905b81548152906001019060200180831161083457829003601f168201915b5050505050815260200160048201805461086a906114a6565b80601f0160208091040260200160405190810160405280929190818152602001828054610896906114a6565b80156108e35780601f106108b8576101008083540402835291602001916108e3565b820191906000526020600020905b8154815290600101906020018083116108c657829003601f168201915b505050505081526020016005820160009054906101000a900473ffffffffffffffffffffffffffffffffffffffff1673ffffffffffffffffffffffffffffffffffffffff1673ffffffffffffffffffffffffffffffffffffffff1681526020016006820160009054906101000a900473ffffffffffffffffffffffffffffffffffffffff1673ffffffffffffffffffffffffffffffffffffffff1673ffffffffffffffffffffffffffffffffffffffff16815250509050919050565b6109a7610de5565b600260008373ffffffffffffffffffffffffffffffffffffffff1673ffffffffffffffffffffffffffffffffffffffff1681526020019081526020016000206040518060e0016040529081600082018054610a01906114a6565b80601f0160208091040260200160405190810160405280929190818152602001828054610a2d906114a6565b8015610a7a5780601f10610a4f57610100808354040283529160200191610a7a565b820191906000526020600020905b815481529060010190602001808311610a5d57829003601f168201915b50505050508152602001600182018054610a93906114a6565b80601f0160208091040260200160405190810160405280929190818152602001828054610abf906114a6565b8015610b0c5780601f10610ae157610100808354040283529160200191610b0c565b820191906000526020600020905b815481529060010190602001808311610aef57829003601f168201915b50505050508152602001600282018054610b25906114a6565b80601f0160208091040260200160405190810160405280929190818152602001828054610b51906114a6565b8015610b9e5780601f10610b7357610100808354040283529160200191610b9e565b820191906000526020600020905b815481529060010190602001808311610b8157829003601f168201915b5050505050815260200160038201548152602001600482018054610bc1906114a6565b80601f0160208091040260200160405190810160405280929190818152602001828054610bed906114a6565b8015610c3a5780601f10610c0f57610100808354040283529160200191610c3a565b820191906000526020600020905b815481529060010190602001808311610c1d57829003601f168201915b505050505081526020016005820160009054906101000a900473ffffffffffffffffffffffffffffffffffffffff1673ffffffffffffffffffffffffffffffffffffffff1673ffffffffffffffffffffffffffffffffffffffff1681526020016006820160009054906101000a900473ffffffffffffffffffffffffffffffffffffffff1673ffffffffffffffffffffffffffffffffffffffff1673ffffffffffffffffffffffffffffffffffffffff16815250509050919050565b828054610d02906114a6565b90600052602060002090601f016020900481019282610d245760008555610d6b565b82601f10610d3d57805160ff1916838001178555610d6b565b82800160010185558215610d6b579182015b82811115610d6a578251825591602001919060010190610d4f565b5b509050610d789190610e4e565b5090565b6040518060e001604052806060815260200160608152602001606081526020016060815260200160608152602001600073ffffffffffffffffffffffffffffffffffffffff168152602001600073ffffffffffffffffffffffffffffffffffffffff1681525090565b6040518060e001604052806060815260200160608152602001606081526020016000815260200160608152602001600073ffffffffffffffffffffffffffffffffffffffff168152602001600073ffffffffffffffffffffffffffffffffffffffff1681525090565b5b80821115610e67576000816000905550600101610e4f565b5090565b6000610e7e610e79846113cb565b61139a565b905082815260208101848484011115610e9657600080fd5b610ea1848285611464565b509392505050565b600081359050610eb8816115bf565b92915050565b600082601f830112610ecf57600080fd5b8135610edf848260208601610e6b565b91505092915050565b600081359050610ef7816115d6565b92915050565b600060208284031215610f0f57600080fd5b6000610f1d84828501610ea9565b91505092915050565b60008060008060008060c08789031215610f3f57600080fd5b600087013567ffffffffffffffff811115610f5957600080fd5b610f6589828a01610ebe565b965050602087013567ffffffffffffffff811115610f8257600080fd5b610f8e89828a01610ebe565b955050604087013567ffffffffffffffff811115610fab57600080fd5b610fb789828a01610ebe565b945050606087013567ffffffffffffffff811115610fd457600080fd5b610fe089828a01610ebe565b935050608087013567ffffffffffffffff811115610ffd57600080fd5b61100989828a01610ebe565b92505060a061101a89828a01610ea9565b9150509295509295509295565b60008060008060008060c0878903121561104057600080fd5b600087013567ffffffffffffffff81111561105a57600080fd5b61106689828a01610ebe565b965050602087013567ffffffffffffffff81111561108357600080fd5b61108f89828a01610ebe565b955050604087013567ffffffffffffffff8111156110ac57600080fd5b6110b889828a01610ebe565b94505060606110c989828a01610ee8565b935050608087013567ffffffffffffffff8111156110e657600080fd5b6110f289828a01610ebe565b92505060a061110389828a01610ea9565b9150509295509295509295565b61111981611428565b82525050565b600061112a826113fb565b6111348185611406565b9350611144818560208601611473565b61114d816115ae565b840191505092915050565b6000611165603083611417565b91507f54686973206163636f756e7420616c726561647920686173206120636572746960008301527f6669636174652070726f766964656421000000000000000000000000000000006020830152604082019050919050565b600060e08301600083015184820360008601526111db828261111f565b915050602083015184820360208601526111f5828261111f565b9150506040830151848203604086015261120f828261111f565b91505060608301518482036060860152611229828261111f565b91505060808301518482036080860152611243828261111f565b91505060a083015161125860a0860182611110565b5060c083015161126b60c0860182611110565b508091505092915050565b600060e0830160008301518482036000860152611293828261111f565b915050602083015184820360208601526112ad828261111f565b915050604083015184820360408601526112c7828261111f565b91505060608301516112dc6060860182611327565b50608083015184820360808601526112f4828261111f565b91505060a083015161130960a0860182611110565b5060c083015161131c60c0860182611110565b508091505092915050565b6113308161145a565b82525050565b6000602082019050818103600083015261134f81611158565b9050919050565b6000602082019050818103600083015261137081846111be565b905092915050565b600060208201905081810360008301526113928184611276565b905092915050565b6000604051905081810181811067ffffffffffffffff821117156113c1576113c061157f565b5b8060405250919050565b600067ffffffffffffffff8211156113e6576113e561157f565b5b601f19601f8301169050602081019050919050565b600081519050919050565b600082825260208201905092915050565b600082825260208201905092915050565b60006114338261143a565b9050919050565b600073ffffffffffffffffffffffffffffffffffffffff82169050919050565b6000819050919050565b82818337600083830152505050565b60005b83811015611491578082015181840152602081019050611476565b838111156114a0576000848401525b50505050565b600060028204905060018216806114be57607f821691505b602082108114156114d2576114d1611550565b5b50919050565b60006114e38261145a565b91507fffffffffffffffffffffffffffffffffffffffffffffffffffffffffffffffff82141561151657611515611521565b5b600182019050919050565b7f4e487b7100000000000000000000000000000000000000000000000000000000600052601160045260246000fd5b7f4e487b7100000000000000000000000000000000000000000000000000000000600052602260045260246000fd5b7f4e487b7100000000000000000000000000000000000000000000000000000000600052604160045260246000fd5b6000601f19601f8301169050919050565b6115c881611428565b81146115d357600080fd5b50565b6115df8161145a565b81146115ea57600080fd5b5056fea2646970667358221220fd50bc3063655bc932ca269f108259f29270f0d16ed089a2a65bfde5baa2a51964736f6c63430008000033",
  "linkReferences": {},
  "deployedLinkReferences": {}
}